[
  {
    "id": 0,
    "description": "test OpMuldMod",
    "arity": 4,
    "chainIdSequencer": 1001,
    "defaultChainId": 1000,
    "sequencerAddress": "0x617b3a3528F9cDd6630fd3301B9c8911F7Bf063D",
    "sequencerPvtKey": "0x28b2b0318721be8c8339199172cd7cc8f5e273800a35616ec893083a4b32c02e",
    "genesis": {
      "accounts": [
        {
          "address": "0x617b3a3528F9cDd6630fd3301B9c8911F7Bf063D",
          "pvtKey": "0x28b2b0318721be8c8339199172cd7cc8f5e273800a35616ec893083a4b32c02e",
          "balance": "100000000000000000000",
          "nonce": "0"
        },
        {
          "address": "0x4d5Cf5032B2a844602278b01199ED191A86c93ff",
          "pvtKey": "0x4d27a600dce8c29b7bd080e29a26972377dbb04d7a27d919adbb602bf13cfd23",
          "balance": "200000000000000000000",
          "nonce": "0"
        }
      ],
      "contracts": [
        {
          "contractName": "OpMuldMod",
          "paramsDeploy": {}
        }
      ]
    },
    "txs": [
      {
        "from": "0x4d5Cf5032B2a844602278b01199ED191A86c93ff",
        "to": "contract",
        "nonce": "0",
        "value": "0",
        "contractName": "OpMuldMod",
        "function": "MuldMod",
        "params": [
          761,
          100000,
          256
        ],
        "gasLimit": 30000000,
        "gasPrice": "1000000",
        "chainId": 1000
      }
    ],
    "timestamp": 1944498031,
    "expectedOldRoot": "0x2014b4ce324b842386489e98b702652430f9ea16088dde6c757200ce8d373f1d",
    "expectedNewRoot": "0x2014b4ce324b842386489e98b702652430f9ea16088dde6c757200ce8d373f1d",
    "newLocalExitRoot": "0x0000000000000000000000000000000000000000000000000000000000000000",
    "batchHashData": "0xb7cdab74b672ca8c777e4beb1dec119cd43c8e6ecf6aca2795f14b90d7fe87a5",
    "batchL2Data": "0xf88b80830f42408401c9c380941275fbb540c8efc58b812ba83b0d0b8b9917ae9880b8642678b3d500000000000000000000000000000000000000000000000000000000000002f900000000000000000000000000000000000000000000000000000000000186a000000000000000000000000000000000000000000000000000000000000001008203e880801aa70e51ce2aac1dc56b5a110050f794b959c8a2b4edc822163df473c64b64f46e021ccaeb01ec6b72d1a90d77868cc7720d8a06acfe3b76f9f45921e4c16e7a1cff",
    "chainID": 1000,
    "oldAccInputHash": "0x0000000000000000000000000000000000000000000000000000000000000000",
    "forkID": 6,
    "expectedNewLeafs": {
      "0x617b3a3528F9cDd6630fd3301B9c8911F7Bf063D": {
        "balance": "100000000000000000000",
        "nonce": "0",
        "storage": null,
        "hashBytecode": "0x0000000000000000000000000000000000000000000000000000000000000000",
        "bytecodeLength": 0
      },
      "0x4d5Cf5032B2a844602278b01199ED191A86c93ff": {
        "balance": "200000000000000000000",
        "nonce": "0",
        "storage": null,
        "hashBytecode": "0x0000000000000000000000000000000000000000000000000000000000000000",
        "bytecodeLength": 0
      },
      "0x1275fbb540c8efc58b812ba83b0d0b8b9917ae98": {
        "balance": "0",
        "nonce": "1",
        "storage": {},
        "hashBytecode": "0xfcc952e707fc3aee48bc45770ded98a98135ea75f9209d1a475fc8456a2cbd2c",
        "bytecodeLength": 349
      }
    }
  }
]